{
  "contractName": "SimpleStorage",
  "abi": [
    {
      "constant": true,
      "inputs": [],
      "name": "count",
      "outputs": [
        {
          "name": "",
          "type": "uint256"
        }
      ],
      "payable": false,
      "stateMutability": "view",
      "type": "function"
    },
    {
      "constant": false,
      "inputs": [
        {
          "name": "_count",
          "type": "uint256"
        }
      ],
      "name": "setCount",
      "outputs": [],
      "payable": false,
      "stateMutability": "nonpayable",
      "type": "function"
    },
    {
      "inputs": [],
      "payable": false,
      "stateMutability": "nonpayable",
      "type": "constructor"
    },
    {
      "anonymous": false,
      "inputs": [
        {
          "indexed": false,
          "name": "_count",
          "type": "uint256"
        }
      ],
      "name": "CountSet",
      "type": "event"
    },
    {
      "anonymous": false,
      "inputs": [
        {
          "indexed": false,
          "name": "_blockNumber",
          "type": "uint256"
        }
      ],
      "name": "Deployed",
      "type": "event"
    }
  ],
  "bytecode": "0x6060604052341561000f57600080fd5b7fb94ae47ec9f4248692e2ecf9740b67ab493f3dcc8452bedc7d9cd911c28d1ca5436040518082815260200191505060405180910390a1610107806100556000396000f3006060604052600436106049576000357c0100000000000000000000000000000000000000000000000000000000900463ffffffff16806306661abd14604e578063d14e62b8146074575b600080fd5b3415605857600080fd5b605e6094565b6040518082815260200191505060405180910390f35b3415607e57600080fd5b60926004808035906020019091905050609a565b005b60005481565b806000819055507fa32bc18230dd172221ac5c4821a5f1f1a831f27b1396d244cdd891c58f132435816040518082815260200191505060405180910390a1505600a165627a7a7230582096eea0cabaa842b6373fe2750b68647baffd4dfbcd5c9c080f4fb2b326c169620029",
  "source": "pragma solidity ^0.4.15;\n\ncontract SimpleStorage {\n    uint public count;\n    \n    event CountSet(uint _count);\n\n    event Deployed(uint _blockNumber);\n\n    function SimpleStorage() {\n      Deployed(block.number);\n    }\n    \n    function setCount(uint _count) {\n        count = _count;\n        CountSet(_count);\n    }\n}\n",
  "sourcePath": "/Users/martyall/code/purescript/purescript-web3-tests/contracts/SimpleStorage.sol",
  "compiler": {
    "name": "solc",
    "version": "0.4.18+commit.9cf6e910.Emscripten.clang"
  },
  "schemaVersion": "1.0.1",
  "updatedAt": "2018-02-12T16:03:58.902Z"
}